:020000040800F2
:1000000058040020A901000827100008210F00084B
:1000100025100008B5020008E311000800000000E8
:100020000000000000000000000000002B1000088D
:10003000B702000800000000291000082D10000879
:10004000C3010008C3010008C3010008C301000880
:10005000C3010008C3010008C3010008B902000879
:10006000C3010008C3010008C3010008C301000860
:10007000C3010008C3010008C3010008C301000850
:10008000C3010008C3010008C3010008000000000C
:10009000000000000000000000000000C301000894
:1000A000C3010008C3010008C3010008C301000820
:1000B000C1100008C3010008C3010008C301000803
:1000C000C3010008C3010008C3010008C301000800
:1000D000C3010008C3010008C301000800000000BC
:1000E000C3010008C3010008C301000800000000AC
:1000F000000000000000000000000000C301000834
:1001000000000000C3010008C3010008C30100088B
:1001100000000000000000000000000000000000DF
:10012000C3010008C3010008C3010008C30100089F
:10013000C3010008000000000000000000000000F3
:10014000000000000000000000000000C3010008E3
:10015000C3010008C3010008C3010008C30100086F
:10016000C3010008C30100080000000000000000F7
:10017000000000000000000000000000000000007F
:1001800000000000C30100080000000000000000A3
:10019000C3010008DFF80CD000F07AF800480047EF
:1001A00025120008580400200648804706480047EA
:1001B000FEE7FEE7FEE7FEE7FEE7FEE7FEE7FEE717
:1001C000FEE7FEE7B1100008950100082DE9F05F99
:1001D0000546002092469B468846064681464024B6
:1001E0001BE0284641464746224600F041F8534668
:1001F0005A46C01A914110D311461846224600F0C3
:1002000028F82D1A67EB01084F46224601200021ED
:1002100000F01FF817EB00094E41201EA4F1010465
:10022000DFDC484631462A464346BDE8F09FD2B25D
:1002300001E000F8012B491EFBD270470022F6E7CF
:1002400010B513460A4604461946FFF7F0FF20464C
:1002500010BD202A04DB203A00FA02F1002070478A
:100260009140C2F1200320FA03F3194390407047F4
:10027000202A04DB203A21FA02F00021704721FAFB
:1002800002F3D040C2F12002914008431946704762
:10029000064C074D06E0E06840F0010394E80700D3
:1002A00098471034AC42F6D3FFF778FF501200089D
:1002B00070120008FEE7704710B5022000F00CF83D
:1002C000BDE810404FF47041014800F001B9000052
:1002D000000C024070470000044910B50A68024251
:1002E00002D00860FFF7F6FF10BD0000143C01408B
:1002F0002DE9F84FDFF8B8A1002201240AF1040B20
:1003000003254FF00F090BF1040E00BF0B6804FA30
:1003100002F63340B34273D10F7907F00307012F80
:1003200001D0022F16D187684FEA420805FA08FC6F
:1003300027EA0C07D1F80CC00CFA08FC4CEA070CB1
:10034000C0F808C04768B7430E79C6F30016964058
:100350003E4346600E79F643B6070DD0C768560097
:1003600005FA06FC27EA0C07D1F808C00CFA06FCCF
:100370004CEA070CC0F80CC00E7906F00306022EFA
:1003800010D1D60800EB8608D8F8206057074FEA4E
:10039000D76C09FA0CF7BE430F6907FA0CF737431D
:1003A000C8F8207006684FEA420C05FA0CF7BE4305
:1003B0000F7907F0030707FA0CF7374307604E6819
:1003C00016F4403F6DD03B4E376847F480473760A6
:1003D000366822F0030706F480460096364E07EB97
:1003E000060CDCF8086897073F0F09FA07F826EAB9
:1003F0000806DFF8C880404503D14FF000081EE032
:100400004FE0DFF8BC80404502D14FF0010816E014
:10041000DFF8B080404502D14FF002080FE0DFF86E
:10042000A880404502D14FF0030808E0DFF89C8027
:10043000404502D14FF0040801E04FF0070808FAE8
:1004400007F848EA0608CCF80888DAF8006057464A
:10045000D1F804C09E435FEACC3C00D51E433E6009
:10046000DBF800605F46D1F804C09E435FEA8C3C35
:1004700000D51E433E60DEF800607746D1F804C028
:100480009E435FEACC2C00D51E433E60084F0C37DC
:100490003E68D1F804C09E435FEA8C2C00D51E4311
:1004A0003E60521C102AFFF431AFBDE8F88F000007
:1004B000003C01404438024000300140000002404E
:1004C0000004024000080240000C024000100240FC
:1004D000426921EA02030A4043EA0241816170470E
:1004E0000AB1816170470904FBE700000148806898
:1004F0007047000000000020024881680278114423
:1005000081607047000000200B4810B5016841F47D
:1005100000710160016841F480610160016841F48B
:1005200080710160032000F06FF8002000F006F8F1
:1005300000F024F8002010BD003C024070B50D4DC5
:1005400004464FF47A712878B1FBF0F00A49096843
:10055000B1FBF0F000F0EAFA48B9102C07D2002203
:100560002146501E00F030F800206C6070BD012064
:1005700070BD0000000000200C0000200A4808B5F3
:10058000016841F480410160006800F480400090FF
:100590000548001F016841F080510160006800F0CB
:1005A0008050009008BD000044380240002809DB5C
:1005B00000F01F02012191404009800000F1E0207D
:1005C000C0F8001170470000F0B40E4B1B680C46D9
:1005D000C3F30223C3F10705042D00D90425191D17
:1005E000072901D2002300E0DB1E012606FA05F1EF
:1005F000491E214099409E40761E16403143F0BC72
:1006000000F0F0BD0CED00E0064900F007020868BC
:100610004FF6FF03184040EA0220034A10430860E7
:10062000704700000CED00E00000FA052DE9F047EE
:100630000E46050065D0DFF81481D8F80000F7B247
:1006400000F00700B04207D288F80070D8F8000028
:1006500000F00700B04254D128683D4C810712D504
:10066000400703D5206840F4E05020602878000758
:1006700003D5206840F4604020602068A96820F01D
:10068000F000084320602878C0072DD03049686802
:100690000839012812D0022813D0032811D0096884
:1006A000890700292DDA216821F003010143216027
:1006B000FFF71CFF814641F2883A0EE00968890382
:1006C000EFE709688901ECE7FFF710FFA0EB0901EC
:1006D000514502D90320BDE8F0872068696800F021
:1006E0000C00B0EB810FEFD1D8F80010404601F0BC
:1006F0000701B14207D90770006800F00700B04257
:1007000001D00120E7E72878400705D52068E9688F
:1007100020F4E050084320602878000706D52068C0
:10072000296920F4604040EAC100206000F018F818
:100730002168084AC1F30311515CC84006490860AA
:1007400006480068FFF7FAFE0020C4E7003C0240BC
:1007500008380240401200080C000020040000206D
:10076000154810B5006810F00C02144813D0411061
:10077000042A0FD0082A0ED10F4C241F22682368A8
:1007800002F03F025B0207D52068C0F38810A0FB8F
:10079000010106E0084610BD2168C1F38811A1FBE4
:1007A00000010023FFF712FD2168C1F30141491C3C
:1007B0004900B0FBF1F010BD083802400024F400FD
:1007C0002DE9F84F04006ED02078DFF84C93C00775
:1007D000A9F104054AD009F104000168C1F38101BF
:1007E000012908D00068C0F3810002280AD1D9F895
:1007F0000000400206D52868800337D560680028CD
:10080000E1D033E06068B0F5803F10D0B0F5A02FA4
:10081000286810D020F480302860286820F48020D8
:1008200028606068A8B1FFF761FE06460DE0286801
:1008300040F48030F4E740F480202860F7E700BF00
:10084000FFF754FE801B642873D828688003F7D50F
:100850000CE0FFF74BFE064605E000BFFFF746FE43
:10086000801B6428F0D828688003F7D42078DFF84C
:10087000AC8280074FF0000A3ED5A748001D0168F2
:1008800011F00C0F08D00068C0F3810002280BD1D2
:10089000D9F80000400207D42868800716D5E06820
:1008A000012800D112E033E1E068B8B10120C8F8B6
:1008B0000000FFF71BFE064605E000BFFFF716FE2F
:1008C000801B0228C0D828688007F7D528682169CE
:1008D00020F0F80040EAC10028600DE0C8F800A050
:1008E000FFF704FE064604E0FFF700FE801B022827
:1008F0001FD828688007F7D42078000722D5864FB4
:1009000087486169703771B101210160FFF7EEFD21
:10091000064604E0FFF7EAFD801B022809D8386884
:100920008007F7D50EE0C0F800A0FFF7DFFD064610
:1009300005E082E0FFF7DAFD801B02287DD83868E9
:100940008007F7D42078400768D5DFF8CCB10027BE
:100950000BF13C0BDBF80000C0000BD4DBF80010FF
:1009600041F08051CBF80010DBF80000012700F0C7
:10097000805000906B4E3068C00510D4306840F451
:1009800080703060FFF7B2FD009005E0FFF7AEFD2C
:100990000099401A022850D83068C005F6D55E4E3E
:1009A000A0686C3601280FD00528306810D020F0E0
:1009B00001003060306820F004003060A068B8B1F9
:1009C000FFF794FD00900FE0306840F00100F4E77D
:1009D00040F004003060F7E7FFF788FD0099411A06
:1009E00041F28830814266D830688007F4D50EE045
:1009F000FFF77CFD009007E0FFF778FD0099411AB2
:100A000041F28830814256D830688007F4D42FB143
:100A1000DBF8001021F08051CBF80010A069C8B3BA
:100A20003D49091D0968C1F3810102294AD0022804
:100A3000504607D0C8F8600000E03CE0FFF756FDE4
:100A400004463BE04746C8F86000FFF74FFD064606
:100A500005E000BFFFF74AFD801B02282BD828685D
:100A60008001F7D4D4E907010843A16A2E4A490856
:100A700002EB0141626A41EA8211084394F82C10AA
:100A800040EA0161C9F8001001203866FFF72EFD29
:100A9000044606E03EE000BFFFF728FD001B0228E9
:100AA00009D828688001F7D534E000BFFFF71EFDA4
:100AB000001B022802D90320BDE8F88F28688001B6
:100AC000F4D427E00128F7D0D9F80000E26900F457
:100AD000800191421CD1226A00F03F01914217D15E
:100AE00047F6C071626A0140B1EB821F10D1A26A61
:100AF0004FF0FF3300F4403103EB5202B1EB024FF1
:100B000006D194F82C1000F07060B0EB016F01D0AA
:100B10000120D1E70020CFE704380240000047421F
:100B2000800E4742007000400000FFFF10B5401EDD
:100B3000B0F1807F01D3012010BD4FF0E02460614F
:100B40000F21601700F04EFB0020A06107202061FC
:100B5000002010BD7047704770B590F83C20012A06
:100B60002CD0012480F83C40022280F83D2003680C
:100B70005A689D6822F070060A6832435A60104B2A
:100B800002689A420ED0B2F1804F0BD00D4B9A42C0
:100B900008D00D4B9A4205D00C4B9A4202D00C4B18
:100BA0009A4204D1496825F080031943916080F886
:100BB0003D40002180F83C10084670BD022070BD09
:100BC000000001400004004000080040000C00400C
:100BD0000040014010B5040003D094F83D0010B16E
:100BE00007E0012010BD002084F83C00204600F002
:100BF0001FF8022084F83D00211D206800F070FAE3
:100C0000012084F8460084F83E0084F83F0084F810
:100C1000400084F8410084F8420084F8430084F8DE
:100C2000440084F8450084F83D00002010BD000019
:100C300008B50068B0F1804F12D10A48016841F050
:100C4000010101600068002200F001000090012114
:100C50001C20FFF7B9FCBDE808401C20FFF7A6BC2C
:100C600008BD00004038024090F83D10012901D035
:100C700001207047022180F83D100168CA6842F0E7
:100C80000102CA6000680E4988420ED0B0F1804F60
:100C90000BD00C49884208D00B49884205D00B493B
:100CA000884202D00A49884204D1816801F00701D4
:100CB000062903D0016841F001010160002070475E
:100CC000000001400004004000080040000C00400B
:100CD0000040014070B5044690F83C000025012812
:100CE00017D0012684F83C60022084F83D0020687B
:100CF000826822F0770222F47F42826008685028DE
:100D000038D00DDC20284FD005DC90B3102811D14D
:100D10004AE0022070BD302846D040280AD13BE08E
:100D200060282FD070280DD0B0F5805F03D0B0F5CB
:100D3000005F12D0012584F83D60002084F83C005B
:100D4000284670BDCB68D1E90121206800F014FA73
:100D50002068816841F0770109E0CB68D1E9012181
:100D6000206800F009FA2068816841F480418160C0
:100D7000E1E719E0CA684968206800F00FFA5021DD
:100D8000206806E0CA684968206800F018FA602107
:100D9000206800F0FBF9CEE7CA684968206800F0D7
:100DA000FDF940212068F4E7226801461046F0E78B
:100DB000704770B50446006801694FF00005C943EB
:100DC000890715D4C168C943890711D4E91E016197
:100DD00001202077206880698007204602D0FFF735
:100DE000E7FF04E000F098F8204600F096F8257739
:100DF00020680169C943490717D4C168C943490735
:100E000013D46FF00401016102202077206880690B
:100E100010F4407F204602D0FFF7CAFF04E000F044
:100E20007BF8204600F079F8257720680169C943EE
:100E3000090716D4C168C943090712D46FF0080125
:100E40000161042020772068C0698007204602D015
:100E5000FFF7AEFF04E000F05FF8204600F05DF819
:100E6000257720680169C943C90617D4C168C943F9
:100E7000C90613D46FF010010161082020772068A3
:100E8000C06910F4407F204602D0FFF791FF04E0D4
:100E900000F042F8204600F040F82577206801690C
:100EA000C943C90708D1C168C943C90704D1891E0C
:100EB0000161204600F032F820680169C943090643
:100EC00009D4C168C943090605D46FF080010161E6
:100ED0002046FFF73FFE20680169C943490609D44F
:100EE000C168C943490605D46FF04001016120463D
:100EF00000F015F820680169C94389060BD4C16860
:100F0000C943890607D46FF0200101612046BDE87E
:100F10007040FFF720BE70BD704770477047704744
:100F2000FEE7000070B586B014216846FFF786F929
:100F30001F480024016841F080010160016801F050
:100F400080010591016841F008010160016801F02C
:100F500008010591016841F0010101600068154E2A
:100F600000F001004FF470450590002229463046FC
:100F7000FFF7B6FA0120CDE9005002256946304658
:100F8000CDE90245FFF7B4F94FF488100095CDE99B
:100F9000010469460848FFF7ABF900220221072047
:100FA000FFF712FB0720FFF701FB06B070BD000042
:100FB00030380240000C02400000024010B586B0FC
:100FC00000241748009401940294039404944FF071
:100FD0008041059401604CF24F31C0E901141321A6
:100FE000C0E9031480218161FFF7F4FD08B172B6F6
:100FF000FEE74FF48050009069460948FFF76AFE0B
:1010000008B172B6FEE7049404A905480594FFF7F9
:10101000A3FD002801D072B6FEE706B010BD0000A7
:1010200010000020FEE7FEE770477047FFF764BA44
:1010300030B593B030216846FFF700F914210CA8B1
:10104000FFF7FCF818480024016841F08051016066
:10105000006800F0805011901448016821F440416C
:1010600041F4004101600068012500F44040119006
:1010700028040694CDE900506846FFF7A1FB08B1AB
:1010800072B6FEE70F20CDE90C05A020CDE90E04D5
:1010900000210CA81094FFF7C9FA002801D072B6FD
:1010A000FEE713B030BD0000403802400070004041
:1010B0000248016841F470010160704788ED00E06A
:1010C00010B54FF470410448FFF702FABDE8104034
:1010D0000248FFF76EBE0000000C02401000002026
:1010E000F0B502681D4B1E4C9F031E4D1E4E9842CC
:1010F00007D0B84205D0A04203D0A84201D0B042E8
:1011000004D122F0700C4A6842EA0C02984210D0D6
:10111000B8420ED0A0420CD0A8420AD0B04208D0AB
:10112000124CA04205D0124CA04202D0114CA04259
:1011300003D122F44074CA6822434C6922F0800231
:10114000224302608A68C2620A688262984201D1C0
:101150000969016301214161F0BD00000000014007
:101160000004004000080040000C00400040014026
:10117000004401400048014010B5846842EA03225F
:1011800024F47F440A432243826010BD826822F027
:1011900070020A4342F007018160704710B5036A8C
:1011A000046A24F001040462846924F0F00444EA2F
:1011B000021423F00A020A438461026210BD10B5D2
:1011C000036A23F0100303628369046A23F4704303
:1011D00043EA023224F0A00343EA01118261016272
:1011E00010BDFEE70907090E002804DB00F1E0202E
:1011F00080F80014704700F00F0000F1E02080F844
:10120000141D704702E008C8121F08C1002AFAD155
:1012100070477047002001E001C1121F002AFBD176
:1012200070470000FFF770F9FFF702FFFFF77AFE43
:10123000FFF7C4FE0148FFF717FDFEE7100000208E
:101240000000000000000000010203040607080976
:1012500070120008000000201000000004120008B6
:10126000801200081000002048040000141200083A
:101270000100000010000000000000000024F40045
:040000050800019559
:00000001FF
